:0400000070EF01F0AC
:0E0008005082FACF01F0FBCF02F051EF0FF063
:100018005080D8CF29F0E8CF2AF0E0CF2BF0FACFE4
:100028002CF0FBCF2DF0E9CF2EF0EACF2FF0E1CF67
:1000380030F0E2CF31F0D9CF32F0DACF33F0F3CF6E
:1000480034F0F4CF35F0F6CF36F0F7CF37F0F8CFFD
:1000580038F0F5CF39F0F2A413D1F294040E4B60C6
:1000680002D08B9E01D08B8E4BC025F0030E251637
:10007800D8A426D04C2A4C50030B0001AA6F8B50F1
:10008800F00B0F098B6E0001AA51020D3A0EF324F2
:10009800D96E000EF420DA6EDECF0FF0DDCF10F04F
:1000A800FBEC10F0AAC025F0010E266E252A02D01E
:1000B800D8902636252EFCD72650FF0A8B148B6E37
:1000C8004B50D8A40CD0000E4D6EAD68F00E00D089
:1000D800E82EFDD7AB9EAB8EAECFA9F09D8A0E0E53
:1000E8004B64CCD00001A251D8A419D04FC025F040
:1000F800D8902532D8902532D8902532070E25166B
:10010800010E266E000E276E252A03D0D8902636BB
:100118002736252EFBD726C040F027C041F04F2AAE
:100128004FC025F0070E2516D8A418D0000E0001E0
:10013800AB6FAB0E0F6E000E106E81508CEC0EF094
:100148000001AB05D8A403D00001A30707D0020E15
:100158000001AB19D8A402D00001A32B0001A351C0
:10016800800A760FD8A020D01F0EF66E3F0EF76ECD
:100178000900F5CF3CF00A00F5CF3DF0EC0E256EF6
:10018800FF0E266EA3C027F0286A27BE2806D8903F
:10019800273628362550272626502822F10E2724D0
:1001A800F66E3E0E282051D00001A351800A890F17
:1001B800D8B014D0210EF66E3F0EF76E0900F5CFB9
:1001C8003CF00A00F5CF3DF0A3C025F0266A25BE15
:1001D80026060A0E2526000E26222BD00001A35142
:1001E800800A7F0FD8A013D0190EF66E3F0EF76E57
:1001F8000900F5CF3CF00A00F5CF3DF00001A3510E
:10020800020DF10EF324F66E3E0EF4201ED000010E
:10021800A3AF1DD01B0EF66E3F0EF76E0900F5CF8B
:100228003CF00A00F5CF3DF0A3C025F0266A25BEB4
:100238002606251E261E254A262AD8902536263625
:10024800F10E2524F66E3E0E2620F76E0ED01D0EFA
:10025800F66E3F0EF76E0900F5CF3CF00A00F5CFB9
:100268003DF0F10EF66E3E0EF76E0900F5CF3EF04A
:100278000A00F5CF3FF0000E4B6E0AD04B2A08D08B
:100288009EAA06D0AECFA8F00001A8513BEC0EF014
:1002980039C0F5FF38C0F8FF37C0F7FF36C0F6FFA2
:1002A80035C0F4FF34C0F3FF33C0DAFF32C0D9FFE2
:1002B80031C0E2FF30C0E1FF2FC0EAFF2EC0E9FFE6
:1002C8002DC0FBFF2CC0FAFF2BC0E0FF2AC0E8FFBF
:1002D80029C0D8FF5090100029EF11F01F0E00011F
:1002E8009465120064B2120000017C5100017D1176
:1002F800D8B407D07CC0D9FF7DC0DAFF0001DFBECB
:1003080013D0000E0001AC6F400E0001AD6F020E5D
:100318000001AE6F400E0001AF6F010E7BEC08F0DC
:10032800ACC07CF0ADC07DF020EE9FF010EEC8F0C0
:10033800050EDBCFE3FFE806FCE200019B51D8A4E1
:10034800120000018C510001D8A4F6D0200E000143
:10035800CA65120000018D510001D8A450D0C8C050
:100368008BF00001C9512B0D000EF32400017A6FA8
:10037800200EF42000017B6FCAC08AF000017E5174
:1003880000017F11D8B407D07EC0D9FF7FC0DAFF43
:100398000001DFBE2ED0000E0201C06F000EC16F3B
:1003A800000EC26F000EC36F0201C099C09BC09DB2
:1003B800C09F0201C051F00B0B09C06FB00E0201C3
:1003C800C16F0B0E0201C26F8AC0C3F2010E000199
:1003D800AC6FC00E0001AD6F020E0001AE6F040ECF
:1003E8000001AF6F010E7BEC08F0ACC07EF0ADC031
:1003F8007FF00A0E00019B6F00018D2B1200000197
:100408008D05D8A454D000017E5100017F11D8B4C5
:1004180007D07EC0D9FF7FC0DAFF0001DFBE41D020
:10042800000E0201C06F000EC16F000EC26F000EF9
:10043800C36F0201C099C09BC09DC09F0201C051FB
:10044800F00B0E09C06FE00E0201C16F00017A5176
:100458007F0B0201C26F7AC0B8F07BC0B9F0070EFB
:100468000001BA6F0001D890B933B8330001BA2F30
:10047800F9D70001B8517F0B0201C36F010E0001CB
:10048800AC6FC00E0001AD6F020E0001AE6F040E1E
:100498000001AF6F010E7BEC08F0ACC07EF0ADC080
:1004A8007FF00A0E00019B6F00018D2B1200010ED8
:1004B80000018C6F00017E5100017F11D8B407D074
:1004C8007EC0D9FF7FC0DAFF0001DFBE2ED0000E4C
:1004D8000201C06F000EC16F000EC26F000EC36F25
:1004E8000201C099C09BC09DC09F0201C051F00B82
:1004F8000909C06F900E0201C16F8BC0C2F2600E75
:100508000201C36F010E0001AC6FC00E0001AD6F98
:10051800020E0001AE6F040E0001AF6F010E7BECFE
:1005280008F0ACC07EF0ADC07FF00A0E00019B6FF2
:10053800000E00018D6F1200100E0001CA613FD03D
:1005480000017E5100017F11D8B407D07EC0D9FFC9
:100558007FC0DAFF0001DFBE2ED0000E0201C06F9F
:10056800000EC16F000EC26F000EC36F0201C0996A
:10057800C09BC09DC09F0201C051F00B0909C06F0C
:10058800900E0201C16F8BC0C2F2000E0201C36F50
:10059800010E0001AC6FC00E0001AD6F020E00012C
:1005A800AE6F040E0001AF6F010E7BEC08F0ACC01B
:1005B8007EF0ADC07FF0000E00018C6F12000A0EB5
:1005C80000019B6F000E0001B86F200E0001B96F8B
:1005D80000018B510001BA6FBB6B0001BA1FBB1F32
:1005E800BA4BBB2B0001C8510001BA250001AC6F02
:1005F800000E0001BB210001AD6F010E0001AF6FBD
:10060800550EAE6FC6EC10F00001C9512B0DF3501A
:100618000001AC27F4500001AD230001B8510001DE
:10062800AC270001B9510001AD230001ACC0C4F0F2
:100638000001ADC0C5F00001000EC5BFFF0EC66FBA
:10064800C76FCAC0C3F000018A510001C319D8B4EA
:100658003BD000017E5100017F11D8B407D07EC085
:10066800D9FF7FC0DAFF0001DFBE2ED0000E0201E5
:10067800C06F000EC16F000EC26F000EC36F020183
:10068800C099C09BC09DC09F0201C051F00B0B09CF
:10069800C06FB00E0201C16F0B0E0201C26FC3C062
:1006A800C3F2010E0001AC6FC00E0001AD6F020E67
:1006B8000001AE6F040E0001AF6F010E7BEC08F075
:1006C800ACC07EF0ADC07FF0080E0001C26F000123
:1006D800C2510001AC6FAD6BAE6BAF6BC4C0B0F074
:1006E800C5C0B1F0C6C0B2F0C7C0B3F0DCEC0EF0C4
:1006F800ACC0B8F0ADC0B9F0AEC0BAF0AFC0BBF096
:100708007AC0ACF07BC0ADF00001AE6BAF6B0001FE
:10071800C2510001BC6FBD6B0001BC1FBD1FBC4BAB
:10072800BD2B100E0001BC27000EBD23BCC0B0F0CD
:10073800BDC0B1F00001000EB1BFFF0EB26FB36FC4
:10074800DCEC0EF00001AC510001B8250001BE6FD1
:100758000001AD510001B9210001BF6F0001AE5188
:100768000001BA210001C06F0001AF510001BB2197
:100778000001C16F050E06D00001D890C133C03307
:10078800BF33BE33E82EF8D7BEC0C4F0BFC0C5F033
:10079800C0C0C6F0C1C0C7F000017E5100017F1182
:1007A800D8B407D07EC0D9FF7FC0DAFF0001DFBE12
:1007B80045D0000E0201C06F000EC16F000EC26F5F
:1007C800000EC36F0201C099C09BC09DC09F02016B
:1007D800C051F00B0E09C06FE00E0201C16F00019D
:1007E800C4517F0B0201C26FC4C0B8F0C5C0B9F0D4
:1007F800C6C0BAF0C7C0BBF0080E06D00001D8903A
:10080800BB33BA33B933B833E82EF8D70001B8513F
:100818007F0B0201C36F010E0001AC6FC00E000117
:10082800AD6F020E0001AE6F040E0001AF6F010E36
:100838007BEC08F0ACC07EF0ADC07FF0C4C07AF0AD
:10084800C5C07BF0C3C08AF0120002012205D8A4FB
:1008580012D0020120511F0B0009D8A40CD00001AE
:100868006B8F030E02012119D8A402D0010E01D00A
:10087800000E00018F6F02012251D8A4120002015C
:1008880020511F0B020AD8A41200020124510F0B99
:100898000009D8B41200020124510F0B0001C06FE7
:1008A800020E0001C0611200200E00019419D8A4A4
:1008B800120000016B8F020124BF1FD002012451D6
:1008C8000F0B0001C06F0001C051020D760EF3241A
:1008D800D96E000EF420DA6EDECFC4F0DDCFC5F09D
:1008E800020124510F0B0001C06F0001C051010D1E
:1008F800820EF324D96E000E1ED0020124510F0B74
:100908000001C06F0001C051020D720EF324D96EB0
:10091800000EF420DA6EDECFC4F0DDCFC5F00201A0
:1009280024510F0B0001C06F0001C051010D800E52
:10093800F324D96E000EF420DA6EDF500001C36F85
:100948000001C3B109D0FB0E0001C4150001C46F3A
:10095800FF0E0001C51507D0040E0001C4110001E7
:10096800C46F0001C5510001C56F020124BF0DD03D
:10097800020124510F0B0001C06F0001C051020D8C
:10098800760EF324D96E000E0CD0020124510F0B01
:100998000001C06F0001C051020D720EF324D96E20
:1009A800000EF420DA6EC4C0DEFFC5C0DDFF030E02
:1009B80002012119D8A434D0C4C0D9FFC5C0DAFFB8
:1009C8000001DFAE20D0020124BF0DD00201245166
:1009D8000F0B0001C06F0001C051010D820EF324FE
:1009E800D96E000E0CD0020124510F0B0001C06F0C
:1009F8000001C051010D800EF324D96E000EF420C1
:100A0800DA6E0001DF82C4C0D9FFC5C0DAFF000E6C
:100A1800DB84C4C0D9FFC5C0DAFF000EDB8E12002C
:100A2800040E0001C4190001C46F0001C551000182
:100A3800C56FC4C0D9FFC5C0DAFF0001DFAE1DD045
:100A4800C4C0D9FFC5C0DAFF7F0EDF16C4C0D9FF06
:100A5800C5C0DAFF000EDB8C000E0001B96F050E71
:100A6800B86FC4C0BAF0C5C0BBF0000E0001BD6FBE
:100A7800020EBC6FBBEC0FF006D0C4C0D9FFC5C0D6
:100A8800DAFF000EDB8C040E0001C4190001C46FEC
:100A98000001C5510001C56F0001C3B307D0C4C030
:100AA800D9FFC5C0DAFF0001DFAE37D0020124BF8D
:100AB8000DD0020124510F0B0001C06F0001C0517D
:100AC800010D820EF324D96E000E0CD002012451C0
:100AD8000F0B0001C06F0001C051010D800EF324FF
:100AE800D96E000EF420DA6E0001DF92C4C0D9FF7F
:100AF800C5C0DAFF3B0EDF16000E0001B96F050E08
:100B0800B86FC4C0BAF0C5C0BBF0000E0001BD6F1D
:100B1800020EBC6FBBEC0FF006D0C4C0D9FFC5C035
:100B2800DAFF3B0EDF16020124510F0B0001C06FE4
:100B38000001C051010D530EF3240001C16F0F0EC7
:100B4800F4200001C26FC1C0D9FFC2C0DAFFFE0E97
:100B5800DF16120000019451D8A412D0000E646E62
:100B6800000E606E160E616E9F0E0F015B6F7B0E9E
:100B7800606E01D0648664A6FDD7010E0001946FF3
:100B880000019405D8B464BA09D0000E626E000E54
:100B9800606E60806088020E0001946F62B460A489
:100BA80003D062948BEC10F064A202D0A1941200DE
:100BB80062B060A006D07BEC06F0040E0001946FD2
:100BC800629062B860A802D0AAEC10F062AC22D0A1
:100BD80060AC12D0000E0001B96F730EB86F000E32
:100BE8000001BA6F000E0001BB6F000E0001BD6F5F
:100BF800010EBC6FBBEC0FF0629C15EC11F000010C
:100C08009751D8B402D00001970700019751D8B482
:100C180093EC0BF062BA60AA02D068EC10F062B2F2
:100C280060A214D07F0E0001B96FB869000E0001F0
:100C3800BA6F000E0001BB6F000E0001BD6F010E00
:100C4800BC6FBBEC0FF0000E0F015F6F040E0001CC
:100C5800946102D0A194120060A647D0000E000152
:100C6800C76F030E0001C76501D03FD062A63DD013
:100C780063CFA7F00001A731E832E8320F0B00017B
:100C88009A6F62960001A7B508D000019A51010D2C
:100C9800820EF324D96E000E07D000019A51010D7F
:100CA800800EF324D96E000EF420DA6E0001DF7096
:100CB80000019A510001D8A403D08BEC0DF012D09A
:100CC800000E0001B96F720EB86FA70E0001BA6F5F
:100CD800000E0001BB6F000E0001BD6F000EBC6F5F
:100CE800BBEC0FF00001C72BBCD7A1941200A09455
:100CF800000E0F015F6F000E626E000E0F01536F42
:100D0800540E0001AC6F0F0E0001AD6F000E000114
:100D1800AF6F000EAE6F000E0001B16F010EB06F25
:100D2800E1EC10F0160E616E9F0E0F015B6F7B0EEB
:100D3800606E000E0001B46F070E0001B46501D0AB
:100D480010D00001B451040D000EF324D96E020E28
:100D5800F420DA6EDE6ADE6ADE6ADD6A0001B42B30
:100D6800EBD7648C000E0F015C6F6498649C6296EC
:100D7800000E00016B6F000E0001636F000E000192
:100D8800656F000E646F62B6F2D7010E0001956FB1
:100D9800010E0001966F000E0001916F000E000118
:100DA800926F000E0001906F000E0001B46F010EEB
:100DB8000001B46501D033D00001B451020D720EA8
:100DC800F324D96E000EF420DA6E000EDE6E000EEB
:100DD800DD6E0001B451020D760EF324D96E000EBB
:100DE800F420DA6E000EDE6E000EDD6E0001B451E6
:100DF800010D800EF324D96E000EF420DA6E000E79
:100E0800DF6E0001B451010D820EF324D96E000E7D
:100E1800F420DA6E000EDF6E0001B42BC8D7080E7E
:100E28000001726F020E0001736F160E0F01536FEF
:100E3800020E0201036F200E026F080E0201016FFD
:100E4800040E0201006F0201008F000E0001A56F61
:100E5800000E00016E6F000E6F6F000E706F000EB7
:100E6800716F000E0001986F000E0001946F120060
:100E7800800E02012019D8A41200C00E00016B6F69
:100E88008FD0E80E0001686F3F0E0001696F000EF9
:100E980000016D6F120E6C6F120002012251D8A46E
:100EA80048D002012251020D290EF324F66E3F0E9E
:100EB800F420F76E0900F5CF68F00A00F5CF69F065
:100EC800020E000168250001AC6F000E00016921C7
:100ED8000001AD6FACC0F6FFADC0F7FFF86A020EB7
:100EE800F76403D00800F55005D0F6CFE1FFF7CF3F
:100EF800E2FFE75000016C6F030E00016825000156
:100F0800AC6F000E000169210001AD6FACC0F6FFA7
:100F1800ADC0F7FFF86A020EF76403D00800F55079
:100F280005D0F6CFE1FFF7CFE2FFE75000016D6F84
:100F38001200000E00016B6F1200030E0201226105
:100F480027D002012251020D230EF324F66E3F0E24
:100F5800F420F76E0900F5CF68F00A00F5CF69F0C4
:100F680068C0F6FF69C0F7FFF86A020EF76403D09D
:100F78000800F55005D0F6CFE1FFF7CFE2FFE750C4
:100F88000001AC6F0001AC5100016C6F6D6B120079
:100F9800000E00016B6F1200000E00016B6F120053
:100FA80002012351010AD8B46CD7030AD8B475D703
:100FB800010AD8B4C2D7F0D7000120EE01F084515D
:100FC800D9268551DA22DF500001AD6F0001AD51FD
:100FD8000001645D000E6559D8A064C0ADF0000141
:100FE800AD510001645F000E655B000E0001AC6F3F
:100FF80014D00001AC51010D280EF324D96E020E55
:10100800F420DA6E60C0E1FF61C0E2FFDFCFE7FFE6
:101018000001604B612B0001AC2B0001AD510001B8
:10102800AC5DD8A0E6D70001645100016511D8B4C1
:1010380035D0000120EE01F08651D9268751DA22F9
:10104800080EDF6E000120EE02F08651D926875186
:10105800DA22280EDE6E020EDD6E84C0D9FF85C04E
:10106800DAFF0001DFBC0DD086C0D9FF87C0DAFFE8
:10107800480EDF6E86C0D9FF87C0DAFF000EDB8E10
:10108800120086C0D9FF87C0DAFF080EDF6E86C05F
:10109800D9FF87C0DAFF000EDB8E1200000120EEB8
:1010A80001F08651D9268751DA22080EDF6E000139
:1010B80020EE02F08651D9268751DA22200EDE6E04
:1010C800020EDD6E86C0D9FF87C0DAFF040EDF6E20
:1010D80086C0D9FF87C0DAFF000EDB8E0001639F50
:1010E80000019351D8A4120093EC0BF012000001F8
:1010F800B46F0001AC510001D8B408D00001B4515C
:10110800020D720EF324D96E000E07D00001B451FF
:10111800020D760EF324D96E000EF420DA6EDECFBF
:10112800B5F0DDCFB6F00001B5510001B611D8A475
:1011380007D0000E0001AC6F000E0001AD6F120069
:10114800000120EE02F0B551D926B651DA22ADC021
:10115800DEFFAEC0DDFF000120EE01F0B551D9265B
:10116800B651DA22AFC0DFFFB5C0D9FFB6C0DAFF8B
:10117800400EDF16B5C0D9FFB6C0DAFF000EDB8619
:10118800B5C0D9FFB6C0DAFF000EDB8E0001AC5146
:101198000001D8B41ED00001B451020D720EF32420
:1011A800D96E000EF420DA6EDECFB0F0DDCFB1F0EC
:1011B800040E0001B0190001B26F0001B151000125
:1011C800B36F0001B451020D720EF324D96E000EF4
:1011D8001DD00001B451020D760EF324D96E000E15
:1011E800F420DA6EDECFB0F0DDCFB1F0040E0001EE
:1011F800B0190001B26F0001B1510001B36F0001D5
:10120800B451020D760EF324D96E000EF420DA6E76
:10121800B2C0DEFFB3C0DDFFB5C0ACF0B6C0ADF004
:101228001200649800016BBF3FD0000163AF0FD07C
:10123800020E0001996F00019251D8B4E7EC0DF04D
:10124800000E0001966F000E0001956F120000015C
:1012580020EE01F08651D9268751DA22080EDF6E7A
:10126800000120EE02F08651D9268751DA22200E9D
:10127800DE6E020EDD6E86C0D9FF87C0DAFF0C0E67
:10128800DF6E86C0D9FF87C0DAFF000EDB8E72C022
:10129800D9FF73C0DAFF040EDF6E72C0D9FF73C0C6
:1012A800DAFF000EDB8E1200020120AF15D0010E0E
:1012B8000001996F00019151D8B4E7EC0DF0000ED0
:1012C8000001966F000E0001956F00019351D8A49C
:1012D800120093EC0BF01200020E0001996F00014E
:1012E80020EE01F08651D9268751DA22080EDF6EEA
:1012F800000120EE02F08651D9268751DA22200E0D
:10130800DE6E020EDD6E86C0D9FF87C0DAFF040EDE
:10131800DF6E86C0D9FF87C0DAFF000EDB8E000EB5
:101328000001966F000E0001956F00019351D8A43B
:10133800120093EC0BF0120000016B8F540E0001A9
:10134800AC6F0F0E0001AD6F000E0001AF6F000E05
:10135800AE6F000E0001B16F010EB06FE1EC10F03E
:10136800000E0001AC6F020E0001AD6F000E00010F
:10137800AF6F000EAE6F000E0001B16F200EB06FA0
:10138800E1EC10F0648C000E0001C06F010E00014A
:10139800C06501D019D00001C051010D800EF324A1
:1013A800D96E000EF420DA6E000EDF6E0001C05117
:1013B800010D820EF324D96E000EF420DA6E000EB1
:1013C800DF6E0001C02BE2D7A60E0001AC6F000E45
:1013D8000001AD6F000E0001AF6F000EAE6F000E82
:1013E8000001B16F010EB06FE1EC10F0649C080EC3
:1013F8000001726F020E0001736F000E0001846F0E
:10140800020E0001856F84C086F085C087F022C275
:10141800A5F00001A551D8A404D0100E0001946FC6
:101428001200000E0001B96F010EB86FA50E000181
:10143800BA6F000E0001BB6F000E0001BD6F010EF8
:10144800BC6FBBEC0FF0200E0001946F120002017C
:101458002039E832030B0009D8A4120054D0000147
:101468006B8F080E0001946F12003CEC07F012001D
:10147800A0EC09F01200A50E0001686F000E000133
:10148800696F00016B81010E00016C6F00016B8FA9
:10149800120067EC0CF0120029EC04F012000201B3
:1014A8002451010DA60EF3240001686F000EF420EC
:1014B8000001696F00016B81010E00016C6F000172
:1014C8006B8F120000016B8F02012451010DA60ED3
:1014D800F324D96E000EF420DA6E22C2DFFF120068
:1014E800000E0001B96F020EB86F000E0001BA6F4E
:1014F800000E0001BB6F000E0001BD6F000EBC6F37
:10150800BBEC0FF0120002012151000AD8B4C1D778
:10151800010AD8B4C1D7020AD8B4BED7060AD8B4CB
:101528009ED7030AD8B4A1D7010AD8B4D9D70F0ACD
:10153800D8B4A1D7010AD8B49BD7030AD8B4AFD777
:10154800010AD8B4BFD7070A1200080E0001AC6F11
:1015580000016D5114E1080E00016C5DD8B00FD088
:101568006CC0ACF000019E51D8A402D0010E05D089
:1015780000019E05D8A403D0020E00019E6F000151
:10158800AC5100016C5F000E6D5B000120EE01F0B4
:101598007251D9267351DA22ACC0DFFF280E000140
:1015A800886F020E0001896F00016BA11ED040D028
:1015B80068C0F6FF69C0F7FFF86A88C0D9FF89C01C
:1015C800DAFF020EF76403D00800F55005D0F6CF15
:1015D800E1FFF7CFE2FFE750DF6E0001684B692BB0
:1015E8000001884B892B0001AC070001AC510001B8
:1015F800D8B41200DDD768C0F6FF69C0F7FFF86AF3
:1016080088C0D9FF89C0DAFF020EF76403D008004A
:10161800F55005D0F6CFE1FFF7CFE2FFE750DF6ED8
:101628000001684B692B0001884B892B0001AC072E
:101638000001AC510001D8B41200DDD772C0D9FF47
:1016480073C0DAFF0001000EDFBC010E0001AD6FB0
:10165800040E000172190001726F0001735100013C
:10166800736F080E00019419D8A40ED002012251FC
:101678007F0B0F015C6F0F015C51D8B402D0100EC4
:1016880001D0040E0001946F00019905D8A43ED042
:10169800000120EE02F07251D9267351DA22280E89
:1016A800DE6E020EDD6EA9EC0AF0020E00019E1934
:1016B800D8A40DD072C0D9FF73C0DAFF040EDF6E54
:1016C80072C0D9FF73C0DAFF000EDB8E1200000172
:1016D800AD510001D8A40DD072C0D9FF73C0DAFF94
:1016E800480EDF6E72C0D9FF73C0DAFF000EDB8EC2
:1016F800120072C0D9FF73C0DAFF080EDF6E72C025
:10170800D9FF73C0DAFF000EDB8E1200000163AF51
:1017180002D00001639F000E0001996F12000001C2
:101728009551D8A41200010E0001956F0001965141
:10173800D8A41200010E0001966F020E000199193B
:10174800D8A416D0000120EE01F07251D9267351A9
:10175800DA22000EDF6E72C0D9FF73C0DAFF480EBE
:10176800DF6E72C0D9FF73C0DAFF000EDB8E120085
:1017780000019905D8A41200000E00018E6F000127
:1017880020EE01F08451D9268551DA22080EDF6E49
:10179800000120EE02F08451D9268551DA22200E6C
:1017A800DE6E020EDD6E84C0D9FF85C0DAFF040E3E
:1017B800DF6E84C0D9FF85C0DAFF000EDB8E010E14
:1017C80000018E6F000120EE01F08651D926875165
:1017D800DA22080EDF6E000120EE02F08651D926CB
:1017E8008751DA22200EDE6E020EDD6E86C0D9FF2A
:1017F80087C0DAFF800EDF6E12000001B16F000EA5
:101808000001B26F020E0001B36F0001AC5100017C
:10181800AD6FAE6BD8900001AD37AE370001B15156
:101828000001AF6FB06B0001D890AF37B03700013F
:10183800D890AF37B0370001AD510001AF27000194
:10184800AE510001B0230001D890AF37B037000186
:10185800D890AF37B0370001AF510001B22700016F
:10186800B0510001B323B2C0D9FFB3C0DAFF000101
:10187800DF9E0001AC510001D8A408D00001B1518D
:10188800020D760EF324D96E000E07D00001B15177
:10189800020D720EF324D96E000EF420DA6EB2C077
:1018A800DEFFB3C0DDFFB2C0D9FFB3C0DAFF00016D
:1018B800DF9C000120EE04F0B251D926B351DA22A0
:1018C8000001DF8C1200000E0201286F000E0201D9
:1018D800296F42D000016B8F00018F05D8A448D032
:1018E8000201288345D000016B8F42D000016B8F25
:1018F800020124BF0DD0020124510F0B0001AC6F6F
:101908000001AC51020D760EF324D96E000E0CD0F6
:10191800020124510F0B0001AC6F0001AC51020D04
:10192800720EF324D96E000EF420DA6EDECFADF01D
:10193800DDCFAEF0ADC0D9FFAEC0DAFF0001DFAE3B
:1019480017D0ADC0D9FFAEC0DAFF0001DFA410D0B8
:10195800010E0201286F0CD0020120511F0B000A52
:10196800D8B4B8D7010AD8B4BED7030AD8B4BED7FA
:1019780000016BAF1200280E0001686F020E000113
:10198800696F00016B81020E00016C6F1200196E05
:101998000FC014F0070E14161450166E156A19505D
:1019A800176E186A1550171216501812FF0E1714D2
:1019B8001A6E070E18141B6E000E1D6E000E1C6E9C
:1019C800000E1F6E0A0E1F6401D028D01FC014F02D
:1019D800010E156E000E166E142A03D0D890153617
:1019E8001636142EFBD71A5015161B5016161550FE
:1019F8001610D8B411D01FC014F0000E156E040EC6
:101A0800166E142A03D0163416321532142EFBD74C
:101A180015501C1216501D121F2AD4D7F10E1C2463
:101A2800F66E360E1D20F76E0800F5CF1EF01E3834
:101A3800E8461F0B0001A325300F10C0D9FF11C0C5
:101A4800DAFFDF6E1E50070B12C0D9FF13C0DAFF92
:101A5800DF6E1200000E00019E6F000E0001936FF2
:101A6800000E0001916F000E0001926F000E000140
:101A78008E6F000E0001996F72C0D9FF73C0DAFF34
:101A88007F0EDF16040E000172190001726F00014B
:101A980073510001736F72C0D9FF73C0DAFF7F0EF4
:101AA800DF16040E000172190001726F00017351F4
:101AB8000001736F86C0D9FF87C0DAFF7F0EDF167B
:101AC800000E00016B6F000E00016D6F000E6C6F51
:101AD800000E0001636F000E0001656F000E646F59
:101AE8002BEC0AF0000E0001B96F030EB86F000E60
:101AF8000001BA6F000E0001BB6F000E0001BD6F40
:101B0800000EBC6FBBEC0FF015EC09F012002D0EA7
:101B18000001976FA7C0C6F0FD0E0001C617D8A434
:101B280049D0A7C0C6F00001D890C6333F0E0001C7
:101B3800C6170001C651040D000EF3240001846F7E
:101B4800020EF4200001856F84C086F085C087F0FE
:101B5800040E000186190001866F000187510001FB
:101B6800876F84C0D9FF85C0DAFF0001DF30E83213
:101B78000F0B0D0AD8A41BD0200E0001AC6F020E6B
:101B88000001AD6F000120EE02F08451D926855185
:101B9800DA22DECFAEF0DDCFAFF0000E0001B16F7C
:101BA800080EB06F43EC10F02EEC0DF0120087EC2D
:101BB8000FF012000001A751FD0B040AD8A412006F
:101BC80022EC0BF01200000E0001916F000E0001D4
:101BD800926F020E00019919D8A421D0000120EEBD
:101BE80001F08651D9268751DA22080EDF6E0001EE
:101BF80020EE02F08651D9268751DA22280EDE6EB1
:101C0800020EDD6E86C0D9FF87C0DAFF480EDF6E90
:101C180086C0D9FF87C0DAFF000EDB8E12000001F4
:101C28006C510201265D00016D5102012759D8B09F
:101C380004D026C26CF027C26DF0A9EC0AF00001AE
:101C480020EE02F07251D9267351DA22280EDE6E88
:101C5800020EDD6E72C0D9FF73C0DAFF480EDF6E68
:101C680072C0D9FF73C0DAFF000EDB8E1200226E3D
:101C7800050E4D600BD04D50010D420EF324D96E68
:101C8800000EF420DA6E22C0DFFF4D2A050E4D1833
:101C9800D8A412004450070B206E43503A6E20C05F
:101CA8003BF042C040F0416A42C023F0246AA4C01D
:101CB8000FF0106A23C011F024C012F03CEC11F0B0
:101CC800060E206ED89010320F32202EFBD70FC090
:101CD80023F010C024F0245004E1800E235CD8A027
:101CE80004D0000E246E7F0E236E23C0A1F044C0E2
:101CF8000FF09F0E106E000E116EA00E126E000EE9
:101D0800136E4350CBEC0CF0010E0001A26F1200D1
:101D1800116E1150500B126E500E1218D8B40BD011
:101D2800050E496408D04E5080090FC0D9FF10C075
:101D3800DAFFDF6E32D012504A18D8B42ED0400ED7
:101D48001218D8A402D0010E24D0100E1218D8A44C
:101D580002D0020E1ED01250D8A402D0030E19D001
:101D6800500E1218D8A417D04950D8B414D0060E63
:101D7800496007D00FC0D9FF10C0DAFF4EC0DFFF9F
:101D88000AD04E5040090FC0D9FF10C0DAFFDF6EED
:101D980002D04E6E02D0000EFCD7500E1218D8B4E6
:101DA80002D0492A02D0000E496E12C04AF0120031
:101DB800000E0001B46F000EB56F000EB66F000E76
:101DC800B76F0001ACA110D00001B0510001B427D9
:101DD8000001B1510001B5230001B2510001B62341
:101DE8000001B3510001B7230001D890B037B137D3
:101DF800B237B3370001D890AF33AE33AD33AC331D
:101E08000001AC510001AD110001AE110001AF118C
:101E1800D8A4D7D7B4C0ACF0B5C0ADF0B6C0AEF05A
:101E2800B7C0AFF012000001AC6F2DD0000E946E59
:101E38008F0E8B6E000E7E6E000E7F6E7F0E936E81
:101E48008F0E8A6E500E786EF19EC40ED56EF28A91
:101E5800F194810ECD6E200EAC6E900EAB6E080E16
:101E6800B86E000EB06E9B0EAF6E9D9A9F9A938AC5
:101E7800939ED08EF28EF28C0C0E0001A36F400E52
:101E88000001A46F12000001AC51000AD8B4CED7EB
:101E9800010AD8B41200030A1200E9CF03F0EACF0E
:101EA80004F0E1CF05F0E2CF06F0D9CF07F0DACFA2
:101EB80008F0F3CF09F0F4CF0AF0F6CF0BF0F7CF24
:101EC8000CF0F8CF0DF0F5CF0EF00EC0F5FF0DC0F9
:101ED800F8FF0CC0F7FF0BC0F6FF0AC0F4FF09C0FB
:101EE800F3FF08C0DAFF07C0D9FF06C0E2FF05C04C
:101EF800E1FF04C0EAFF03C0E9FF02C0FBFF01C025
:101F0800FAFF50921100020E00019919D8A403D0CB
:101F1800E0EC07F01200000E0001996F00018E51ED
:101F2800D8A421D0000120EE01F08651D92687518E
:101F3800DA22080EDF6E000120EE02F08651D92663
:101F48008751DA22200EDE6E020EDD6E86C0D9FFC2
:101F580087C0DAFF0C0EDF6E86C0D9FF87C0DAFFB4
:101F6800000EDB8E1200000E00018E6F120006D0EC
:101F780059EC11F01200ECEC0FF01200B8C0BEF0F2
:101F8800B9C0BFF00001BF51000AD8B404D07F0A1D
:101F9800D8A4120019D00001BE51010AD8B4EBD759
:101FA800030AD8B41200010AD8B41200060AD8B439
:101FB8001200770AD8B41200010AD8B4D9D7070A90
:101FC800D8B41200010A12000001BE51FF0A120023
:101FD800000E00017E6F000E00017F6F000E0001F1
:101FE8007C6F000E00017D6F3C0E00019C6F010E9E
:101FF80000019D6F000E00019B6F1E0E0001B46F63
:10200800010E1BEC10F0000E0001AC6F400E000139
:10201800AD6F020E0001AE6F400E0001AF6F010EF2
:102028007BEC08F0ACC07CF0ADC07DF01200000184
:10203800B76F0001B4A507D0000E0001AC6F000116
:10204800B75101EC0CF00001B4A307D0010E000158
:10205800AC6F0001B75101EC0CF00001B751010D54
:10206800530EF3240001B56F0F0EF4200001B66F74
:10207800B5C0D9FFB6C0DAFFB4C0DFFF1200AEC0EA
:10208800B4F0AFC0B5F0ACC0B2F0ADC0B3F010D092
:10209800B4C0D9FFB5C0DAFFB2C0E1FFB3C0E2FFF8
:1020A800DFCFE7FF0001B44BB52B0001B24BB32BD8
:1020B8000001B007D8A0B1070001B029E9E100018B
:1020C800B129D8B41200E4D70F0153A11ED084C09F
:1020D800D9FF85C0DAFF800EDE18D8A414D072C0EC
:1020E800D9FF73C0DAFF840EDE18D8A40CD084C0E0
:1020F800D9FF85C0DAFF0C0EDF6E84C0D9FF85C01A
:10210800DAFF000EDB8E0F015391629A1200000E67
:102118000001906F000E0001B96F740EB86F000EC9
:102128000001BA6F000E0001BB6F000E0001BD6F09
:10213800000EBC6FBBEC0FF06492609401D0629407
:1021480062B4FDD7000E0001986F12006084629897
:102158006482010E0001906F000E0001986F000E5E
:102168000001B96F750EB86F000E0001BA6F000E4E
:102178000001BB6F000E0001BD6F000EBC6FBBEC11
:102188000FF012000001AC510001AE03F3CFB0F024
:10219800F4CFB1F00001AC510001AF03F3500001DE
:1021A800B1270001AD510001AE03F3500001B12782
:1021B800B0C0ACF0B1C0ADF01200ACC0B2F0ADC070
:1021C800B3F009D0B2C0D9FFB3C0DAFFAEC0DFFFA9
:1021D8000001B24BB32B0001B007D8A0B107000132
:1021E800B029F0E10001B129D8B41200EBD7000EF4
:1021F800116E0F0E116401D00ED00FAE02D08B9865
:1022080001D08B888B8AD8900F340F6E1034106EE3
:102218008B9A112AEED78B8C040EE82EFED78B9C56
:102228001200010E00016E27000E6F237023712328
:1022380000019051D8A412000001982B0001985178
:10224800D8A4120000019869120000EE60F0480E50
:10225800EE6AE806FDE100EE3AF0160EEE6AE806D0
:10226800FDE150905092000EF86E00014FEF11F012
:102278000F501102F3CF13F0F4CF14F00F501202E5
:10228800F350142610501102F350142613C00FF007
:1022980014C010F01200000E17EC0FF07BEC06F0E3
:1022A800AEEC05F072EC01F0FBD700019B51D8B4FD
:0822B800120000019B07120057
:1036F000007070707070707070707070707070703A
:1037000070707070707070707070707070707070B9
:1037100070707070707070707070707070707070A9
:103720007070707070707070707070707070707099
:103730007070707070707070707070707070707089
:103740007070707070707070707070707070707079
:103750007070707070707070707070707070707069
:103760007070707070707070707070707070707059
:10377000707070707071717171717171717171713E
:10378000727272727273737373737373737374740C
:1037900074747474747575757675757576767676D9
:1037A00076767777777778787877787878787878A2
:1037B00078797979797A7A7A7A7A7A7A7A7A7B7B6D
:1037C0007B7B7B7B7B7C7C7C7C7C7C7C7C7D7D7D3B
:1037D0007D7D7D7D7E7E7F7F7F7E7F7F7F7F7F7F04
:1037E0007F807E7E7E7A7979787A79797878777732
:1037F000777777777676757575767575757575756E
:103800007474747474737373737373737372727286
:1038100072727171717070707070707070707070A1
:103820006F6F6F6F6F6E6E6E6D6E6E6E6D6D6D6DB8
:103830006D6D6C6C6C6B6B6B6B6B6B6B6B6B6A6AD3
:103840006A6A6A6A6A6968686869686868686868EC
:1038500068686868686868686868686868686868E8
:1038600068686868686868686868686868686868D8
:1038700068686767676666666666666666666666E1
:1038800066656565656464646464646464646464F2
:103890006363636363626262626262626262616105
:1038A0006161616161606060606060606060606013
:1038B0006060626263696C6C6D696C6C6D6E717175
:1038C00072737676777D8080817D80808182858528
:1038D00086888787868483838284838382828181AA
:1038E00080807D7D7C777575747775757473717163
:1038F00070909090909090909090909090909090E8
:1039000090919191919191919191919191919191A8
:103910009192929292929292929292929292929288
:103920009293939393939393939393939393939368
:103930009394949494949494949494949494949448
:103940009495959595959595959595959595959528
:103950009596969696969696969696969696969608
:1039600096979797979797979797979797979797E8
:1039700097989898989898989898989898989898C8
:1039800098999999999999999999999999999999A8
:10399000999A9A9A9A9A9A9A9A9A9A9A9A9A9A9A88
:1039A0009A9B9B9B9B9B9B9B9B9B9B9B9B9B9B9B68
:1039B0009B9C9C9C9C9C9C9C9C9C9C9C9C9C9C9C48
:1039C0009C9D9D9D9D9D9D9D9D9D9D9D9D9D9D9D28
:1039D0009D9E9E9E9E9E9E9E9E9E9E9E9E9E9E9E08
:1039E0009E9F9F9F9F9F9F9F9F9F9F9F9F9F9F9FE8
:1039F0009FA0A0A0A0A0A0A0A0A0A0A0A0A0A0A0C8
:103A0000A0A1A1A1A1A1A1A1A1A1A1A1A1A1A1A1A7
:103A1000A1A2A2A2A2A2A2A2A2A2A2A2A2A2A2A287
:103A2000A2A3A3A3A3A3A3A3A3A3A3A3A3A3A3A367
:103A3000A3A4A4A4A4A4A4A4A4A4A4A4A4A4A4A447
:103A4000A4A5A5A5A5A5A5A5A5A5A5A5A5A5A5A527
:103A5000A5A6A6A6A6A6A6A6A6A6A6A6A6A6A6A607
:103A6000A6A7A7A7A7A7A7A7A7A7A7A7A7A7A7A7E7
:103A7000A7A8A7A7A7A6A5A5A5A6A5A5A5A5A4A4EB
:103A8000A4A4A3A3A3A2A1A1A1A2A1A1A1A1A0A01A
:103A9000A0A09F9F9F9E9D9D9D9E9D9D9D9D9C9C4A
:103AA0009C9C9B9B9B9A9999999A9999999998987A
:103AB00098989797969493939394939393929292C2
:103AC00091919090908C8B8B8B8C8B8B8B8A89892E
:103AD00088888787868483838284838382828181A6
:103AE00080807D7D7B7471716F7471716F6E6B6B93
:103AF00069909090909090909090909090909090ED
:103B000090919191919191919191919191919191A6
:103B10009192929292929292929292929292929286
:103B20009293939393939393939393939393939366
:103B30009394949494949494949494949494949446
:103B40009495959595959595959595959595959526
:103B50009596969696969696969696969696969606
:103B600096979797979797979797979797979797E6
:103B700097989898989898989898989898989898C6
:103B800098999999999999999999999999999999A6
:103B9000999A9A9A9A9A9A9A9A9A9A9A9A9A9A9A86
:103BA0009A9B9B9B9B9B9B9B9B9B9B9B9B9B9B9B66
:103BB0009B9C9C9C9C9C9C9C9C9C9C9C9C9C9C9C46
:103BC0009C9D9D9D9D9D9D9D9D9D9D9D9D9D9D9D26
:103BD0009D9E9E9E9E9E9E9E9E9E9E9E9E9E9E9E06
:103BE0009E9F9F9F9F9F9F9F9F9F9F9F9F9F9F9FE6
:103BF0009FA0A0A0A0A0A0A0A0A0A0A0A0A0A0A0C6
:103C0000A0A1A1A1A1A1A1A1A1A1A1A1A1A1A1A1A5
:103C1000A1A2A2A2A2A2A2A2A2A2A2A2A2A2A2A285
:103C2000A2A3A3A3A3A3A3A3A3A3A3A3A3A3A3A365
:103C3000A3A4A4A4A4A4A4A4A4A4A4A4A4A4A4A445
:103C4000A4A5A5A5A5A5A5A5A5A5A5A5A5A5A5A525
:103C5000A5A6A6A6A6A6A6A6A6A6A6A6A6A6A6A605
:103C6000A6A7A7A7A7A7A7A7A7A7A7A7A7A7A7A7E5
:103C7000A7A8A7A7A7A6A5A5A5A6A5A5A5A5A4A4E9
:103C8000A4A4A3A3A3A2A1A1A1A2A1A1A1A1A0A018
:103C9000A0A09F9F9F9E9D9D9D9E9D9D9D9D9C9C48
:103CA0009C9C9B9B9B9A9999999A99999999989878
:103CB00098989797969493939394939393929292C0
:103CC00091919090908C8B8B8B8C8B8B8B8A89892C
:103CD00088888787868483838284838382828181A4
:103CE00080807D7D7B7471716F7471716F6E6B6B91
:103CF0006968676767676767676767676767676751
:103D00006666666666666666666666666666656555
:103D10006565656565656565646565656464646458
:103D2000646464646464636363646363636363635C
:103D3000636363636362626262626262626262625E
:103D4000626262626261616161616161616161615E
:103D5000616161616060606060606060606060605F
:103D60006060616161646565656465656566676716
:103D700068605F5F5F5F5E5E5E5F5E5E5E5E5E5E52
:103D80005E5E5D5D5D5D5C5C5C5D5C5C5C5C5C5C6A
:103D90005C5C5B5B5B5B5A5A5A5B5A5A5A5A5A5A7A
:103DA0005A5A59595959585858595858585858588A
:103DB00058585757575655555556555555555454A7
:103DC00054545353535251515152515151515050D7
:103DD00050505353545D6060625D6060626367671A
:103DE000686A6D6D6F7875757478757574727070BA
:103DF0006458575757565656565656565656565650
:103E0000565555555554545454545454545454546C
:103E1000545353535352525252525252525252527C
:103E2000525151515150505050505050505050508C
:103E3000504F4F4F4F4E4E4E4E4E4E4E4E4E4D4D9E
:103E40004D4D4D4D4D4C4C4C4C4C4C4C4C4B4B4BB0
:103E50004B4B4B4B4A4A4949494A494949494949C7
:103E600049494848484848484848484848484848D0
:103E700048484747474646464646464646464646DB
:103E800045454545454444444444444444444343EF
:103E90004343434343424242414242424141414102
:103EA0004141404040403D3D3C403D3D3C3B393937
:103EB00038383737373535353535353535343434A9
:103EC00034333333333131313131313131303030DA
:103ED00030282222202020202020202020202020C6
:103EE00020201E1E1D181414121814141210080875
:103EF000003F0006000B900D18261129210C980791
:103F0000003F112F1137110F5439000F443911316F
:103F1000113D10000000000000005500110855067A
:103F2000550611FA3F903FBC3F2B3F090265000246
:103F30000100C03209040000000101000009240151
:103F4000000109000101090401000201030000074A
:103F5000240100014100062402010100062402029E
:103F600002000924030103010201000924030204E1
:103F700001010100090501024000000000052501C2
:103F8000010109058102400000000005250101032F
:103F90002C037200650076005F006300310038007A
:103FA0003100350040007900610068006F006F004B
:103FB0002E0063006F002E006A0070002C03590071
:103FC0004C0045005F00530079006E0074006800EB
:103FD0005F005200650063006F00720064006500BE
:103FE00072005F007600310012010002000000083C
:0F3FF000D8045900020001020001040309040073
:020000040020DA
:08000000FFFFFFFFFFFFFFFF00
:020000040030CA
:0E0000000032011EFF0081FF03C003E0034039
:00000001FF
