:040000006CEF00F0B1
:0E0008004382FACF24F0FBCF25F029EF0CF055
:100018004380D8CF32F0E8CF33F0E0CF34F0FACFD6
:1000280035F0FBCF36F0E9CF37F0EACF38F0E1CF43
:1000380039F0E2CF3AF0D9CF3BF0DACF3CF0F3CF4A
:100048003DF0F4CF3EF0F6CF3FF0F7CF40F0F8CFD9
:1000580041F0F5CF42F0F2A417D0F2948B1E8296AD
:1000680082980001792B0F0E000179650DD0000EE2
:100078000001796F00017851D8B402D0828601D08E
:100088008288010E0001781B42C0F5FF41C0F8FFCD
:1000980040C0F7FF3FC0F6FF3EC0F4FF3DC0F3FF8E
:1000A8003CC0DAFF3BC0D9FF3AC0E2FF39C0E1FFEC
:1000B80038C0EAFF37C0E9FF36C0FBFF35C0FAFF9A
:1000C80034C0E0FF33C0E8FF32C0D8FF43901000CF
:0400D8000CEF0EF02B
:1003000000C6036E039A0309030902650002010097
:10031000C0320904000000010100000924010001AD
:100320000900010109040100020103000007240182
:10033000000141000624020101000624020202001D
:10034000092403010301020100092403020401013D
:10035000010009050102400000000005250101011E
:1003600009058102400000000005250101032C035E
:100370007200650076005F006300310038003100D4
:10038000350040007900610068006F006F002E00AA
:1003900063006F002E006A0070001A0359005500B8
:1003A00053005F00530079006E00D003CE03CC03EE
:1003B000D203CA031201000200000008D804590049
:1003C0000200010200010403090431005F0068001B
:0503D00074007600003E
:1003D60002012205D8A410D0020120511F0B0009EA
:1003E600D8A40AD0048E030E02012119D8A402D083
:1003F600010E01D0000E136E02012251D8A4120084
:10040600020120511F0B020AD8A412000201245136
:100416000F0B0009D8B41200020124510F0B000182
:10042600916F020E000191611200200E1718D8A4D8
:100436001200048E020124BF1FD0020124510F0BAB
:100446000001916F00019151020D6C0EF324D96EDB
:10045600000EF420DA6EDECF95F0DDCF96F00201C5
:1004660024510F0B0001916F00019151010D740E83
:10047600F324D96E000E1ED0020124510F0B000189
:10048600916F00019151020D070EF324D96E000EF3
:10049600F420DA6EDECF95F0DDCF96F0020124511E
:1004A6000F0B0001916F00019151010D720EF324A3
:1004B600D96E000EF420DA6EDF500001946F000151
:1004C60094B109D0FB0E000195150001956FFF0E42
:1004D6000001961507D0040E000195110001956FD5
:1004E600000196510001966F020124BF0DD0020152
:1004F60024510F0B0001916F00019151020D6C0EFA
:10050600F324D96E000E0CD0020124510F0B00010A
:10051600916F00019151020D070EF324D96E000E62
:10052600F420DA6E95C0DEFF96C0DDFF030E0201F1
:100536002119D8A434D095C0D9FF96C0DAFF00019E
:10054600DFAE20D0020124BF0DD0020124510F0BD3
:100556000001916F00019151010D740EF324D96EC3
:10056600000E0CD0020124510F0B0001916F000107
:100576009151010D720EF324D96E000EF420DA6E3D
:100586000001DF8295C0D9FF96C0DAFF000EDB843A
:1005960095C0D9FF96C0DAFF000EDB8E1200040E5E
:1005A600000195190001956F000196510001966FA3
:1005B60095C0D9FF96C0DAFF0001DFAE1DD095C009
:1005C600D9FF96C0DAFF7F0EDF1695C0D9FF96C019
:1005D600DAFF000EDB8C000E00018A6F050E896FB4
:1005E60095C08BF096C08CF0000E00018E6F020E47
:1005F6008D6FEEEC0BF006D095C0D9FF96C0DAFFF2
:10060600000EDB8C040E000195190001956F0001A8
:1006160096510001966F000194B307D095C0D9FF9B
:1006260096C0DAFF0001DFAE37D0020124BF0DD03D
:10063600020124510F0B0001916F00019151010D30
:10064600740EF324D96E000E0CD0020124510F0B48
:100656000001916F00019151010D720EF324D96EC4
:10066600000EF420DA6E0001DF9295C0D9FF96C025
:10067600DAFF3B0EDF16000E00018A6F050E896F4A
:1006860095C08BF096C08CF0000E00018E6F020EA6
:100696008D6FEEEC0BF006D095C0D9FF96C0DAFF51
:1006A6003B0EDF16020124510F0B0001916F000172
:1006B6009151010D530EF3240001926F0F0EF42099
:1006C6000001936F92C0D9FF93C0DAFFFE0EDF16CA
:1006D60012001750D8A411D0000E646E000E606E82
:1006E600160E616E9F0E0F015B6F7B0E606E01D062
:1006F600648664A6FDD7010E176E1704D8B464BAD3
:1007060008D0000E626E000E606E60806088020E79
:10071600176E62B460A403D0629454EC0DF064A228
:1007260002D0A194120062B060A005D028EC04F0BB
:10073600040E176E629062B860A802D0ADEC0DF0A0
:1007460062AC1ED060AC12D0000E00018A6F730E30
:10075600896F000E00018B6F000E00018C6F000E7A
:1007660000018E6F010E8D6FEEEC0BF0629CF8ECC3
:100776000DF01A50D8A41A061A50D8B404EC0AF090
:1007860062BA60AA02D031EC0DF062B260A214D057
:100796007F0E00018A6F8969000E00018B6F000EC3
:1007A60000018C6F000E00018E6F010E8D6FEEEC56
:1007B6000BF0000E0F015F6F040E176002D0A194BC
:1007C600120060A640D0000E0001986F030E0001D3
:1007D600986501D038D062A636D063CF23F0233097
:1007E600E832E8320F0B1C6E629623B407D01C5019
:1007F600010D740EF324D96E000E06D01C50010DA7
:10080600720EF324D96E000EF420DA6E0001DF704A
:100816001C50D8A403D0C2EC0AF012D0000E00017E
:100826008A6F720E896F230E00018B6F000E000116
:100836008C6F000E00018E6F000E8D6FEEEC0BF0CC
:100846000001982BC3D7A1941200A094000E0F01AB
:100856005F6F000E626E000E0F01536F540E0001A3
:100866007D6F0F0E00017E6F000E0001806F000E7F
:100876007F6F000E0001826F010E816FC9EC0DF0D3
:10088600160E616E9F0E0F015B6F7B0E606E000E83
:100896000001856F070E0001856501D010D00001AB
:1008A6008551040D000EF324D96E020EF420DA6E83
:1008B600DE6ADE6ADE6ADD6A0001852BEBD7648CB0
:1008C600000E0F015C6F6498649C6296000E046EC5
:1008D600000E0001636F000E0001656F000E646F6D
:1008E60062B6F3D7010E186E010E196E000E146E65
:1008F600000E156E000E00017B6F000E0001856F65
:10090600010E0001856501D033D000018551020D2D
:10091600070EF324D96E000EF420DA6E000EDE6E9A
:10092600000EDD6E00018551020D6C0EF324D96EAA
:10093600000EF420DA6E000EDE6E000EDD6E000193
:100946008551010D720EF324D96E000EF420DA6E75
:10095600000EDF6E00018551010D740EF324D96E71
:10096600000EF420DA6E000EDF6E0001852BC8D76C
:10097600080E076E020E086E160E0F01536F020E5A
:100986000201036F200E026F080E0201016F040EB2
:100996000201006F0201008F000E216E000E0001A1
:1009A600686F000E696F000E6A6F000E6B6F000EA7
:1009B60000017C6F000E176E12001F0E17641200E6
:1009C60064B212000001705100017111D8B407D051
:1009D60070C0D9FF71C0DAFF0001DFBE13D0000E70
:1009E60000017D6F400E00017E6F020E00017F6FD9
:1009F600400E0001806F010E98EC05F07DC070F08E
:100A06007EC071F0010EE3EC0DF0E806D8A443D0E9
:100A16001D50D8A412001F04D8A412000D500E10A9
:100A2600D8B406D00DC0D9FF0EC0DAFFDFBE120063
:100A3600640E1D6E000E0201C06F000EC16F000E27
:100A4600C26F000EC36F0201C099C09BC09DC09FBC
:100A56000201C051F00B0909C06F900E0201C16F6F
:100A66001EC0C2F27F0E0201C36F010E00017D6F30
:100A7600C00E00017E6F020E00017F6F040E0001A2
:100A8600806F010E98EC05F07DC00DF07EC00EF073
:100A9600000E1F6E12001D50D8A412001F50D8A4BD
:100AA60012000D500E10D8B406D00DC0D9FF0EC0DE
:100AB600DAFFDFBE1200640E1D6E000E0201C06F6B
:100AC600000EC16F000EC26F000EC36F0201C09907
:100AD600C09BC09DC09F0201C051F00B0909C06FA9
:100AE600900E0201C16F1EC0C2F21E2A000E020144
:100AF600C36F490E1E18D8A402D03C0E1E6E010EFE
:100B060000017D6FC00E00017E6F020E00017F6F37
:100B1600040E0001806F010E98EC05F07DC00DF00B
:100B26007EC00EF0010E1F6E12000001856F0001DF
:100B36007D510001D8B408D000018551020D070E81
:100B4600F324D96E000E07D000018551020D6C0EFC
:100B5600F324D96E000EF420DA6EDECF86F0DDCFF8
:100B660087F00001865100018711D8A407D0000E36
:100B760000017D6F000E00017E6F1200000120EE65
:100B860002F08651D9268751DA227EC0DEFF7FC069
:100B9600DDFF000120EE01F08651D9268751DA22C9
:100BA60080C0DFFF86C0D9FF87C0DAFF400EDF16A0
:100BB60086C0D9FF87C0DAFF000EDB8686C0D9FF64
:100BC60087C0DAFF000EDB8E00017D510001D8B42C
:100BD6001ED000018551020D070EF324D96E000EBA
:100BE600F420DA6EDECF81F0DDCF82F0040E000154
:100BF60081190001836F000182510001846F000199
:100C06008551020D070EF324D96E000E1DD000018A
:100C16008551020D6C0EF324D96E000EF420DA6EA7
:100C2600DECF81F0DDCF82F0040E000181190001D4
:100C3600836F000182510001846F00018551020D0E
:100C46006C0EF324D96E000EF420DA6E83C0DEFF3C
:100C560084C0DDFF86C07DF087C07EF01200800E66
:100C660002012019D8A41200C00E046E82D0B40E60
:100C7600016E030E026E000E066E120E056E120057
:100C860002012251D8A442D002012251020D070EC0
:100C9600F324F66E030EF420F76E0900F5CF01F08B
:100CA6000A00F5CF02F0020E012400017D6F000E4E
:100CB600022000017E6F7DC0F6FF7EC0F7FFF86A56
:100CC600020EF76403D00800F55005D0F6CFE1FF19
:100CD600F7CFE2FFE750056E030E012400017D6F9A
:100CE600000E022000017E6F7DC0F6FF7EC0F7FF7A
:100CF600F86A020EF76403D00800F55005D0F6CF67
:100D0600E1FFF7CFE2FFE750066E1200000E046E19
:100D16001200030E0201226126D002012251020DA9
:100D2600010EF324F66E030EF420F76E0900F5CFDC
:100D360001F00A00F5CF02F001C0F6FF02C0F7FF8E
:100D4600F86A020EF76403D00800F55005D0F6CF16
:100D5600E1FFF7CFE2FFE75000017D6F00017D5113
:100D6600056E066A1200000E046E1200000E046E76
:100D7600120002012351010AD8B479D7030AD8B464
:100D86007FD7010AD8B4C5D7F1D720EE01F00F50AE
:100D9600D9261050DA22DF5000017E6F00017E5105
:100DA6000001645D000E6559D8A064C07EF00001A4
:100DB6007E510001645F000E655B000E00017D6FD1
:100DC60014D000017D51010D280EF324D96E020EB8
:100DD600F420DA6E60C0E1FF61C0E2FFDFCFE7FF1B
:100DE6000001604B612B00017D2B00017E5100014B
:100DF6007D5DD8A0E6D70001645100016511D8B425
:100E060032D020EE01F01150D9261250DA22080E07
:100E1600DF6E20EE02F01150D9261250DA22280E8B
:100E2600DE6E020EDD6E0FC0D9FF10C0DAFFDFBC2A
:100E36000DD011C0D9FF12C0DAFF480EDF6E11C007
:100E4600D9FF12C0DAFF000EDB8E120011C0D9FFE7
:100E560012C0DAFF080EDF6E11C0D9FF12C0DAFF2A
:100E6600000EDB8E120020EE01F01150D926125032
:100E7600DA22080EDF6E20EE02F01150D92612504B
:100E8600DA22200EDE6E020EDD6E11C0D9FF12C010
:100E9600DAFF040EDF6E11C0D9FF12C0DAFF000EB2
:100EA600DB8E0001639F1650D8A4120004EC0AF0F2
:100EB6001200048E540E00017D6F0F0E00017E6F2E
:100EC600000E0001806F000E7F6F000E0001826F22
:100ED600010E816FC9EC0DF0000E00017D6F020E50
:100EE60000017E6F000E0001806F000E7F6F000E06
:100EF6000001826F200E816FC9EC0DF0648C000E2C
:100F06000001916F010E0001916501D019D0000119
:100F16009151010D720EF324D96E000EF420DA6E93
:100F2600000EDF6E00019151010D740EF324D96E8F
:100F3600000EF420DA6E000EDF6E0001912BE2D770
:100F4600220E00017D6F000E00017E6F000E000173
:100F5600806F000E7F6F000E0001826F010E816FA1
:100F6600C9EC0DF0649C080E076E020E086E000EAA
:100F76000F6E020E106E0FC011F010C012F022C2DA
:100F860021F02150D8A403D0100E176E1200000EC7
:100F960000018A6F010E896F210E00018B6F000E12
:100FA60000018C6F000E00018E6F010E8D6FEEEC4E
:100FB6000BF0200E176E1200649804BE39D00001A3
:100FC60063AF0BD0020E1B6E1550D8B462EC0BF05B
:100FD600000E196E000E186E120020EE01F0115070
:100FE600D9261250DA22080EDF6E20EE02F01150DA
:100FF600D9261250DA22200EDE6E020EDD6E11C0E8
:10100600D9FF12C0DAFF0C0EDF6E11C0D9FF12C075
:10101600DAFF000EDB8E07C0D9FF08C0DAFF040E28
:10102600DF6E07C0D9FF08C0DAFF000EDB8E1200A4
:10103600020120AF10D0010E1B6E1450D8B462EC22
:101046000BF0000E196E000E186E1650D8A4120082
:1010560004EC0AF01200020E1B6E20EE01F0115095
:10106600D9261250DA22080EDF6E20EE02F0115059
:10107600D9261250DA22200EDE6E020EDD6E11C067
:10108600D9FF12C0DAFF040EDF6E11C0D9FF12C0FD
:10109600DAFF000EDB8E000E196E000E186E16506B
:1010A600D8A4120004EC0AF0120002012039E8323A
:1010B600030B0009D8A4120047D0048E080E176E41
:1010C600120032EC06F012005CEC07F01200210E62
:1010D600016E000E026E0480010E056E048E120073
:1010E60067EC0AF01200EBEC01F012000201245149
:1010F600010D220EF324016E000EF420026E048010
:10110600010E056E048E1200048E02012451010D9B
:10111600220EF324D96E000EF420DA6E22C2DFFF0F
:101126001200000E00018A6F020E896F000E000188
:101136008B6F000E00018C6F000E00018E6F000E8B
:101146008D6FEEEC0BF0120002012151000AD8B4AB
:10115600C7D7010AD8B4C7D7020AD8B4C4D7060A73
:10116600D8B4ABD7030AD8B4ACD7010AD8B4D9D708
:101176000F0AD8B4ACD7010AD8B4A6D7030AD8B494
:10118600B5D7010AD8B4C0D7070A1200080E000165
:101196007D6F065010E1080E055CD8B00CD005C076
:1011A6007DF02050D8A402D0010E04D02004D8A48B
:1011B60002D0020E206E00017D51055E000E065A19
:1011C60020EE01F00750D9260850DA227DC0DFFF55
:1011D600280E0001766F020E0001776F04A01DD065
:1011E6003ED001C0F6FF02C0F7FFF86A76C0D9FF0D
:1011F60077C0DAFF020EF76403D00800F55005D079
:10120600F6CFE1FFF7CFE2FFE750DF6E014A022A91
:101216000001764B772B00017D0700017D5100010F
:10122600D8B41200DED701C0F6FF02C0F7FFF86A95
:1012360076C0D9FF77C0DAFF020EF76403D0080044
:10124600F55005D0F6CFE1FFF7CFE2FFE750DF6EAE
:10125600014A022A0001764B772B00017D07000127
:101266007D510001D8B41200DED70001826F000E56
:101276000001836F020E0001846F00017D510001A1
:101286007E6F7F6BD89000017E377F3700018251D9
:101296000001806F816B0001D89080378137000193
:1012A600D8908037813700017E51000180270001E8
:1012B6007F51000181230001D890803781370001DA
:1012C600D8908037813700018051000183270001C3
:1012D60081510001842383C0D9FF84C0DAFF000155
:1012E600DF9E00017D510001D8A408D00001825183
:1012F600020D6C0EF324D96E000E07D00001825148
:10130600020D070EF324D96E000EF420DA6E83C0A8
:10131600DEFF84C0DDFF83C0D9FF84C0DAFF000191
:10132600DF9C000120EE04F08351D9268451DA2295
:101336000001DF8C120007C0D9FF08C0DAFF000EDB
:10134600DFBC010E00017E6F040E0718076E085001
:10135600086E080E1718D8A40DD0020122517F0B73
:101366000F015C6F0F015C51D8B402D0100E01D092
:10137600040E176E1B04D8A43CD020EE02F00750D2
:10138600D9260850DA22280EDE6E020EDD6EC9EC72
:1013960008F0020E2018D8A40DD007C0D9FF08C047
:1013A600DAFF040EDF6E07C0D9FF08C0DAFF000EB1
:1013B600DB8E120000017E510001D8A40DD007C0BB
:1013C600D9FF08C0DAFF480EDF6E07C0D9FF08C094
:1013D600DAFF000EDB8E120007C0D9FF08C0DAFF65
:1013E600080EDF6E07C0D9FF08C0DAFF000EDB8EDD
:1013F6001200000163AF02D00001639F000E1B6E56
:1014060012001850D8A41200010E186E1950D8A454
:101416001200010E196E020E1B18D8A415D020EE6C
:1014260001F00750D9260850DA22000EDF6E07C0F9
:10143600D9FF08C0DAFF480EDF6E07C0D9FF08C023
:10144600DAFF000EDB8E12001B04D8A41200000E79
:1014560000017A6F20EE01F00F50D9261050DA22E3
:10146600080EDF6E20EE02F00F50D9261050DA2259
:10147600200EDE6E020EDD6E0FC0D9FF10C0DAFF41
:10148600040EDF6E0FC0D9FF10C0DAFF000EDB8E30
:10149600010E00017A6F20EE01F01150D92612508C
:1014A600DA22080EDF6E20EE02F01150D926125015
:1014B600DA22200EDE6E020EDD6E11C0D9FF12C0DA
:1014C600DAFF800EDF6E1200000E0201286F000E9A
:1014D6000201296F3ED0048E1304D8A446D002011F
:1014E600288343D0048E41D0048E020124BF0DD040
:1014F600020124510F0B00017D6F00017D51020D89
:101506006C0EF324D96E000E0CD0020124510F0B81
:1015160000017D6F00017D51020D070EF324D96E87
:10152600000EF420DA6EDECF7EF0DDCF7FF07EC0D7
:10153600D9FF7FC0DAFF0001DFAE17D07EC0D9FF2A
:101546007FC0DAFF0001DFA410D0010E0201286F70
:101556000CD0020120511F0B000AD8B4BCD7010AD7
:10156600D8B4C0D7030AD8B4BFD704AE1200280E29
:10157600016E020E026E0480020E056E12002D0E22
:101586001A6E23C097F0FD0E00019717D8A441D01C
:1015960023C097F00001D89097333F0E00019717AC
:1015A60000019751040D000EF3240F6E020EF42075
:1015B600106E0FC011F010C012F0040E1118116E4B
:1015C6001250126E0FC0D9FF10C0DAFFDF30E832BA
:1015D6000F0B0D0AD8A41AD0200E00017D6F020E43
:1015E60000017E6F20EE02F00F50D9261050DA224D
:1015F600DECF7FF0DDCF80F0000E0001826F080E97
:10160600816F0CEC0DF014EC0BF012005FEC0CF09B
:1016160012002350FD0B040AD8A412009EEC09F018
:101626001200000E206E000E166E000E146E000ED6
:10163600156E000E00017A6F000E1B6E07C0D9FFF3
:1016460008C0DAFF7F0EDF16040E0718076E085073
:10165600086E07C0D9FF08C0DAFF7F0EDF16040E3A
:101666000718076E0850086E11C0D9FF12C0DAFFBE
:101676007F0EDF16000E046E000E066E000E056E5F
:10168600000E0001636F000E0001656F000E646FAF
:1016960058EC08F0000E00018A6F030E896F000EE9
:1016A60000018B6F000E00018C6F000E00018E6F23
:1016B600000E8D6FEEEC0BF0DFEC07F01200000E63
:1016C600146E000E156E020E1B18D8A41FD020EE45
:1016D60001F01150D9261250DA22080EDF6E20EEE4
:1016E60002F01150D9261250DA22280EDE6E020EB2
:1016F600DD6E11C0D9FF12C0DAFF480EDF6E11C0D1
:10170600D9FF12C0DAFF000EDB8E1200055002016F
:10171600265D065002012759D8B004D026C205F02E
:1017260027C206F0C9EC08F020EE02F00750D926D1
:101736000850DA22280EDE6E020EDD6E07C0D9FFD3
:1017460008C0DAFF480EDF6E07C0D9FF08C0DAFF0F
:10175600000EDB8E120064A236D0010E90EC0DF066
:1017660012000B040C10D8A404D0010E73EC0DF07B
:101776002FD04B0E0B180C10D8A404D0010E90ECF1
:101786000DF026D00C5004E1970E0B5CD8A020D0AB
:10179600000E0C6E000E0B6E1BD00B040C10D8A4A2
:1017A60004D0010E73EC0DF013D0320E0B180C1092
:1017B600D8A404D0010E90EC0DF00AD0B70E0B5C45
:1017C600030E0C58E3D71750200AD8B4CAD7E5D76A
:1017D6000B4A0C2A12000ED0AEEC0BF029EC0EF0E0
:1017E6001200AEEC0BF01200AEEC0BF01200BAECED
:1017F6000CF0120089C08FF08AC090F00001905161
:10180600000AD8B404D07F0AD8A412001BD0000165
:101816008F51010AD8B4EBD7030AD8B41200010AD3
:10182600D8B41200060AD8B41200770AD8B4120047
:10183600010AD8B4D1D7070AD8B4D6D7010AD8A492
:101846001200CFD700018F51FF0A1200E9CF26F010
:10185600EACF27F0E1CF28F0E2CF29F0D9CF2AF05E
:10186600DACF2BF0F3CF2CF0F4CF2DF0F6CF2EF00D
:10187600F7CF2FF0F8CF30F0F5CF31F031C0F5FFCC
:1018860030C0F8FF2FC0F7FF2EC0F6FF2DC0F4FFC3
:101896002CC0F3FF2BC0DAFF2AC0D9FF29C0E2FF14
:1018A60028C0E1FF27C0EAFF26C0E9FF25C0FBFFED
:1018B60024C0FAFF43921100020E1B18D8A403D0CD
:1018C600C8EC06F01200000E1B6E00017A51D8A477
:1018D6001FD020EE01F01150D9261250DA22080E40
:1018E600DF6E20EE02F01150D9261250DA22200EB9
:1018F600DE6E020EDD6E11C0D9FF12C0DAFF0C0ECD
:10190600DF6E11C0D9FF12C0DAFF000EDB8E1200A7
:10191600000E00017A6F120000017D6F1ED0000ECE
:10192600946E550E8B6E000E7E6E000E7F6E949832
:10193600948A9496840ED56EF28AF194810ECD6EB9
:10194600890EB16E000EB36E000EB26E000EBF6E43
:10195600000EBE6E040EBD6E120000017D51000A1F
:10196600D8B4DDD7010AD8B41200030A1200000E5B
:101976000D6E000E0E6E000E0001706F000E00015F
:10198600716F3C0E1E6E010E1F6E000E1D6E1E0E3A
:101996000001856F010EE4EC0CF0000E00017D6F76
:1019A600400E00017E6F020E00017F6F400E0001A7
:1019B600806F010E98EC05F07DC070F07EC071F06E
:1019C60012000001886F000185A507D0000E0001F6
:1019D6007D6F0001885138EC09F0000185A307D01E
:1019E600010E00017D6F0001885138EC09F00001FD
:1019F6008851010D530EF3240001866F0F0EF4205B
:101A06000001876F86C0D9FF87C0DAFF85C0DFFF78
:101A160012007FC085F080C086F07DC083F07EC056
:101A260084F010D085C0D9FF86C0DAFF83C0E1FFFD
:101A360084C0E2FFDFCFE7FF0001854B862B000164
:101A4600834B842B00018107D8A0820700018129DE
:101A5600E9E100018229D8B41200E4D70F0153A1AD
:101A66001ED00FC0D9FF10C0DAFF800EDE18D8A432
:101A760014D007C0D9FF08C0DAFF840EDE18D8A438
:101A86000CD00FC0D9FF10C0DAFF0C0EDF6E0FC0EE
:101A9600D9FF10C0DAFF000EDB8E0F015391629A58
:101AA6001200000E00017B6F000E00018A6F740E9B
:101AB600896F000E00018B6F000E00018C6F000E07
:101AC60000018E6F000E8D6FEEEC0BF06492609449
:101AD60001D0629462B4FDD7000E00017C6F120043
:101AE60000017D6F08D08B8012008B8212008B84E0
:101AF60012008B86120000017D51000AD8B4120034
:101B0600010AD8B4F0D7030AD8B4EFD7010AD8B47B
:101B1600EED7070AD8A41200ECD700017D6F08D0D3
:101B26008B9012008B9212008B9412008B961200EF
:101B360000017D51000AD8B41200010AD8B4F0D7CA
:101B4600030AD8B4EFD7010AD8B4EED7070AD8A447
:101B56001200ECD7608462986482010E00017B6FEC
:101B6600000E00017C6F000E00018A6F750E896FF2
:101B7600000E00018B6F000E00018C6F000E00013D
:101B86008E6F000E8D6FEEEC0BF012007DC083F0B1
:101B96007EC084F009D083C0D9FF84C0DAFF7FC03D
:101BA600DFFF0001834B842B00018107D8A0820749
:101BB60000018129F0E100018229D8B41200EBD797
:101BC60000017D6F08D080B602D0010E1200000E13
:101BD6001200000E120000017D51000AD8B4F9D798
:101BE600010AD8B4F0D7000E1200010E00016827D2
:101BF600000E69236A236B2300017B51D8A41200CF
:101C060000017C2B00017C51D8A4120000017C69E4
:101C1600120000EE60F01D0EEE6AE806FDE100EE31
:101C260001F0230EEE6AE806FDE143904392000EB2
:101C3600F86E00011FEF0EF0000E8FEC0CF028EC92
:101C460004F06CEC03F0E0EC04F0FBD71D50D8B4C4
:061C560012001D06120041
:020000040020DA
:08000000FFFFFFFFFFFFFFFF00
:020000040030CA
:0E0000000032011EFF0081FF03C003E0034039
:00000001FF
