:1000000014C423C422C421C420C41FC41EC41DC4DC
:100010001CC41BC41AC419C418C417C449C415C4C9
:1000200014C413C412C492B9B98A9ACFCF7B92C4B4
:10003000C4828ADCDC6E92BEBE868FD5D5749CC924
:10004000C97B82C4C46292BBBB8895D2D27797C663
:10005000C67F86CFCF6A92C1C1838AD8D870A2CC1E
:10006000CC74AEAEAE5792BABA8998D1D17995C553
:10007000C58088D5D56C92BFBF858DD7D7729FCBF1
:10008000CB7897BABA5F92BDBD8792D4D4769AC81E
:10009000C87D84C9C96892C2C2828ADADA6EA4CEE7
:1000A000CE8DA4A4A45292B9B98A99D0D07A94C41E
:1000B000C48189D8D86D92BFBF858ED6D6739ECAAB
:1000C000CA798CBFBF6092BCBC8793D3D37799C7E2
:1000D000C77E85CCCC6992C1C1838AD9D96FA3CDA3
:1000E000CD80A9A9A95292BBBB8896D1D17896C6DA
:1000F000C68087D2D26B92C0C0848BD8D871A0CC76
:10010000CC76A2B5B55D92BDBD8691D5D5759BC99E
:10011000C97C83C6C66792C3C3868ADBDB6E9ECE6C
:10012000CE9B9A97974D92B9B98A99D0D07A94C4B8
:10013000C48189D8D86D92BFBF858ED6D6739ECA2A
:10014000CA798CBFBF6092BCBC8793D3D37799C761
:10015000C77E85CCCC6992C1C1838AD9D96FA3CD22
:10016000CD80A9A9A95292BBBB8896D1D17896C659
:10017000C68087D2D26B92C0C0848BD8D871A0CCF5
:10018000CC76A2B5B55D92BDBD8691D5D5759BC91E
:10019000C97C83C6C66792C3C3868ADBDB6E9ECEEC
:1001A000CE9B9A97974D92BABA8998D0D07A94C537
:1001B000C58189D7D76C92BFBF858DD6D6739ECAAD
:1001C000CA7891BDBD5F92BCBC8793D3D37699C8E2
:1001D000C87D84CBCB6992C2C2838ADADA6FA4CDA0
:1001E000CD86A7A7A75292BBBB8895D2D27897C6D7
:1001F000C67F86D1D16A92C0C0848BD8D871A1CC79
:10020000CC75A8B1B15D92BEBE8690D5D5749CC99F
:10021000C97B82C5C56492C3C3898ADBDB6E9BCF71
:10022000CF959690904992B9B98A9ACFCF7B93C4D3
:10023000C4828ADBDB6D92BEBE868FD6D6749DCA21
:10024000CA7B85C2C26192BBBB8894D2D27798C761
:10025000C77E86CECE6A92C1C1838AD9D970A2CC1C
:10026000CC77ADADAD5492BABA8997D1D17995C555
:10027000C58088D5D56C92C0C0848CD7D7729FCBEF
:10028000CB7799B9B95E92BDBD8792D4D4759AC81F
:10029000C87D84C9C96892C2C2838ADADA6EA3CEE5
:1002A000CE90A2A1A15192B9B98999D0D07A94C423
:1002B000C48189D8D86C92BFBF858ED6D6739ECAAA
:1002C000CA798FBEBE6092BCBC8793D3D37699C7E0
:1002D000C77E85CCCC6992C2C2838AD9D96FA3CD9F
:1002E000CD83A8A8A85292BBBB8896D2D27896C6D6
:1002F000C67F87D1D16B92C0C0848BD8D871A1CC76
:10030000CC75A5B3B35D92BEBE8690D5D5759BC99D
:10031000C97C83C6C66692C3C3888ADBDB6E9DCF69
:10032000CF989893934B92B9B98999D0D07A94C4C5
:10033000C48189D8D86C92BFBF858ED6D6739ECA29
:10034000CA798FBEBE6092BCBC8793D3D37699C75F
:10035000C77E85CCCC6992C2C2838AD9D96FA3CD1E
:10036000CD83A8A8A85292BBBB8896D2D27896C655
:10037000C67F87D1D16B92C0C0848BD8D871A1CCF5
:10038000CC75A5B3B35D92BEBE8690D5D5759BC91D
:10039000C97C83C6C66692C3C3888ADBDB6E9DCFE9
:1003A000CF989893934B92BABA8998D1D17995C541
:1003B000C58188D6D66C92BFBF858DD7D7729FCBAB
:1003C000CB7894BBBB5F92BCBC8792D4D47699C8DF
:1003D000C87D84CACA6892C2C2828ADADA6FA4CEA1
:1003E000CE89A6A6A65292BBBB8895D2D27897C6D4
:1003F000C67F86D0D06A92C1C1848AD8D870A1CC79
:10040000CC74ABB0B05C92BEBE8690D5D5749CC99E
:10041000C97B82C4C46292C3C38A8ADBDB6E9BCF72
:10042000CF92948D8D4592B9B98A9ACFCF7B93C4E0
:10043000C4828ADBDB6D92BEBE868FD6D6749DCA1F
:10044000CA7B85C2C26192BBBB8894D2D27798C75F
:10045000C77E86CECE6A92C1C1838AD9D970A2CC1A
:10046000CC77ADADAD5492BABA8997D1D17995C553
:10047000C58088D5D56C92C0C0848CD7D7729FCBED
:10048000CB7799B9B95E92BDBD8792D4D4759AC81D
:10049000C87D84C9C96892C2C2838ADADA6EA3CEE3
:1004A000CE90A2A1A15192B9B98999D0D07A94C421
:1004B000C48189D8D86C92BFBF858ED6D6739ECAA8
:1004C000CA798FBEBE6092BCBC8793D3D37699C7DE
:1004D000C77E85CCCC6992C2C2838AD9D96FA3CD9D
:1004E000CD83A8A8A85292BBBB8896D2D27896C6D4
:1004F000C67F87D1D16B92C0C0848BD8D871A1CC74
:10050000CC75A5B3B35D92BEBE8690D5D5759BC99B
:10051000C97C83C6C66692C3C3888ADBDB6E9DCF67
:10052000CF989893934B92B9B98999D0D07A94C4C3
:10053000C48189D8D86C92BFBF858ED6D6739ECA27
:10054000CA798FBEBE6092BCBC8793D3D37699C75D
:10055000C77E85CCCC6992C2C2838AD9D96FA3CD1C
:10056000CD83A8A8A85292BBBB8896D2D27896C653
:10057000C67F87D1D16B92C0C0848BD8D871A1CCF3
:10058000CC75A5B3B35D92BEBE8690D5D5759BC91B
:10059000C97C83C6C66692C3C3888ADBDB6E9DCFE7
:1005A000CF989893934B92BABA8998D1D17995C53F
:1005B000C58188D6D66C92BFBF858DD7D7729FCBA9
:1005C000CB7894BBBB5F92BCBC8792D4D47699C8DD
:1005D000C87D84CACA6892C2C2828ADADA6FA4CE9F
:1005E000CE89A6A6A65292BBBB8895D2D27897C6D2
:1005F000C67F86D0D06A92C1C1848AD8D870A1CC77
:10060000CC74ABB0B05C92BEBE8690D5D5749CC99C
:10061000C97B82C4C46292C3C38A8ADBDB6E9BCF70
:10062000CF92948D8D4592B9B98A9ACFCF7B93C4DE
:10063000C4828ADADA6D92BEBE858FD6D6749DCA20
:10064000CA7A86C2C26192BCBC8894D3D37798C759
:10065000C77E86CECE6A92C1C1838AD9D970A2CD17
:10066000CD78ACACAC5292BABA8997D1D17995C554
:10067000C58088D4D46B92C0C0848CD7D772A0CBED
:10068000CB779BB9B95E92BDBD8792D4D4759AC819
:10069000C87C83C8C86892C2C2848ADADA6EA2CEE5
:1006A000CE92A19F9F5092B9B98998D0D07A94C523
:1006B000C58189D7D76C92BFBF858ED6D6739ECAA7
:1006C000CA7990BDBD6092BCBC8793D3D37699C7DD
:1006D000C77D85CBCB6992C2C2838AD9D96FA3CD9E
:1006E000CD85A7A7A75292BBBB8896D2D27897C6D2
:1006F000C67F87D1D16B92C0C0848BD8D871A1CC72
:10070000CC75A6B2B25D92BEBE8690D5D5749CC99A
:10071000C97C82C5C56592C3C3888ADBDB6E9CCF6A
:10072000CF979792924A92B9B98998D0D07A94C5C6
:10073000C58189D7D76C92BFBF858ED6D6739ECA26
:10074000CA7990BDBD6092BCBC8793D3D37699C75C
:10075000C77D85CBCB6992C2C2838AD9D96FA3CD1D
:10076000CD85A7A7A75292BBBB8896D2D27897C651
:10077000C67F87D1D16B92C0C0848BD8D871A1CCF1
:10078000CC75A6B2B25D92BEBE8690D5D5749CC91A
:10079000C97C82C5C56592C3C3888ADBDB6E9CCFEA
:1007A000CF979792924A92BABA8998D1D17995C542
:1007B000C58188D6D66C92BFBF858DD7D7729FCBA7
:1007C000CB7895BBBB5F92BDBD8792D4D4769AC8D7
:1007D000C87D84CACA6892C2C2828ADADA6FA4CE9D
:1007E000CE8BA5A5A55292BBBB8895D2D27897C6D1
:1007F000C67F86D0D06A92C1C1838AD8D870A1CC76
:10080000CC74ADAFAF5C92BEBE8690D5D5749CC99A
:10081000C97B82C4C46292C3C38A8ADBDB6E9BCF6E
:10082000CF86928C8C410000000011241FBECFE5C2
:10083000D4E0DEBFCDBF10E0A0E6B0E001C01D9265
:10084000AD36B107E1F7B3D0CBC1DACB93B320B368
:1008500080B78B7F80BF822F22FD02C040E001C0A5
:1008600040E283FD406184FD486085FD446086FD73
:10087000426027FD416050E04F735070892F90E037
:1008800026E0880F991F2A95E1F7482B592B80B74E
:10089000846080BF2091620030916300242B352B4F
:1008A000509363004093620020953095C9010895EC
:1008B0001F920F920FB60F9211242F933F934F93D5
:1008C0005F938F939F9324B135B18091660090918F
:1008D0006700909365008093640080916800909118
:1008E0006900909367008093660080916A00909100
:1008F0006B009093690080936800A90182E020302A
:10090000380710F04FEF51E050936B0040936A00AE
:10091000809166009091670020916400309165009D
:10092000820F931F2091680030916900820F931FFE
:10093000840F951F33E0969587953A95E1F780935C
:100940006C009F918F915F914F913F912F910F90EC
:100950000FBE0F901F9018959C01009729F41FBCA3
:100960008EB58E7F8EBD089580E48FBD8EB581607B
:100970008EBD40E050E060E874E88EE190E00ED17A
:10098000215030403BBD2ABD089528EC40E553EC92
:1009900023BDCA010197F1F780916C008B3018F0EC
:1009A0002F5F23BD08952150243191F708952F9290
:1009B0003F924F925F926F927F928F929F92AF92EF
:1009C000BF92CF92DF92EF92FF920F931F93DF932C
:1009D000CF9300D000D00F92CDB7DEB720E048EE25
:1009E00053E0CA010197F1F72F5F2436D1F714BA0B
:1009F0008FE185BB92E091BB8DEF82BB8AE087BB24
:100A000085EF88BB9BB998E09AB986E880BD10BC99
:100A10008CE089B985E487B98DEA86B9369A80E495
:100A20008FBD9EBD1BBC1ABC89E685BD8FEF83BD03
:100A30007894ABDF0BDF9770892B11F423E806C0A5
:100A400005DFFC01F770EA5DFF4F24910091600023
:100A500010916100EE24B6E0CB2E1E010894211CFB
:100A6000311CA6E04A2E512C4C0E5D1EF4EF6F2E69
:100A7000F1E07F2E822E9924AA24BB248099FECFF8
:100A80008C2D8A95F1F7809BFECF8C2D8A95F1F7FE
:100A9000F0906C00DBDEF9828A839B831C821D82CE
:100AA000F10120815D9BFECF2CB95D9BFECF31967D
:100AB000E415F505B1F7EE2029F028E12F1510F423
:100AC000DD2409C0E0E2EF1508F041C0DD24EE208E
:100AD00011F4DD24D39497708A5D9F4FFC016491DB
:100AE000FFE3FF1518F4FF24FA9403C0F6942FEDEA
:100AF000F20E70E080E090E023E830E040E050E06B
:100B00002ED0A50194014AD06F2D70E080E090E0D6
:100B100040E050E024D0E5E096958795779567957D
:100B2000EA95D1F79B01DD2011F08B010BC0C801C4
:100B3000880F991F080F191F020F131F169507958D
:100B400016950795C80108DFEE24E39404C080E001
:100B500090E002DFEE24C3010197F1F78FCF629F8F
:100B6000D001739FF001829FE00DF11D649FE00DA5
:100B7000F11D929FF00D839FF00D749FF00D659F06
:100B8000F00D9927729FB00DE11DF91F639FB00D05
:100B9000E11DF91FBD01CF0111240895A1E21A2E14
:100BA000AA1BBB1BFD010DC0AA1FBB1FEE1FFF1F11
:100BB000A217B307E407F50720F0A21BB30BE40B61
:100BC000F50B661F771F881F991F1A9469F76095A8
:100BD0007095809590959B01AC01BD01CF01089562
:040BE000F894FFCFB7
:00000001FF
